{
  "_format": "hh-sol-artifact-1",
  "contractName": "Lottery",
  "sourceName": "contracts/BetTokens.sol",
  "abi": [
    {
      "inputs": [
        {
          "internalType": "address",
          "name": "_debeTokenAddress",
          "type": "address"
        }
      ],
      "stateMutability": "nonpayable",
      "type": "constructor"
    },
    {
      "anonymous": false,
      "inputs": [
        {
          "indexed": true,
          "internalType": "address",
          "name": "previousOwner",
          "type": "address"
        },
        {
          "indexed": true,
          "internalType": "address",
          "name": "newOwner",
          "type": "address"
        }
      ],
      "name": "OwnershipTransferred",
      "type": "event"
    },
    {
      "inputs": [
        {
          "internalType": "address",
          "name": "",
          "type": "address"
        }
      ],
      "name": "balances",
      "outputs": [
        {
          "internalType": "uint256",
          "name": "stakedAmount",
          "type": "uint256"
        },
        {
          "internalType": "string",
          "name": "betOnThis",
          "type": "string"
        },
        {
          "internalType": "bool",
          "name": "winner",
          "type": "bool"
        },
        {
          "internalType": "bool",
          "name": "rewarded",
          "type": "bool"
        },
        {
          "internalType": "uint256",
          "name": "blockNumber",
          "type": "uint256"
        }
      ],
      "stateMutability": "view",
      "type": "function"
    },
    {
      "inputs": [],
      "name": "calculatePrize",
      "outputs": [
        {
          "internalType": "uint256",
          "name": "winAmount",
          "type": "uint256"
        }
      ],
      "stateMutability": "view",
      "type": "function"
    },
    {
      "inputs": [
        {
          "internalType": "address",
          "name": "_token",
          "type": "address"
        }
      ],
      "name": "claimRewards",
      "outputs": [],
      "stateMutability": "nonpayable",
      "type": "function"
    },
    {
      "inputs": [],
      "name": "closeLottery",
      "outputs": [],
      "stateMutability": "nonpayable",
      "type": "function"
    },
    {
      "inputs": [],
      "name": "debeToken",
      "outputs": [
        {
          "internalType": "contract IERC20",
          "name": "",
          "type": "address"
        }
      ],
      "stateMutability": "view",
      "type": "function"
    },
    {
      "inputs": [],
      "name": "endLottery",
      "outputs": [],
      "stateMutability": "nonpayable",
      "type": "function"
    },
    {
      "inputs": [
        {
          "internalType": "string",
          "name": "_betOnThis",
          "type": "string"
        },
        {
          "internalType": "address",
          "name": "_token",
          "type": "address"
        },
        {
          "internalType": "uint256",
          "name": "_amount",
          "type": "uint256"
        }
      ],
      "name": "enterLottery",
      "outputs": [],
      "stateMutability": "payable",
      "type": "function"
    },
    {
      "inputs": [
        {
          "internalType": "uint256",
          "name": "_betAmount",
          "type": "uint256"
        }
      ],
      "name": "getEntranceFee",
      "outputs": [
        {
          "internalType": "uint256",
          "name": "entryFee",
          "type": "uint256"
        }
      ],
      "stateMutability": "pure",
      "type": "function"
    },
    {
      "inputs": [
        {
          "internalType": "address",
          "name": "_user",
          "type": "address"
        }
      ],
      "name": "getUserTVL",
      "outputs": [
        {
          "internalType": "uint256",
          "name": "",
          "type": "uint256"
        }
      ],
      "stateMutability": "view",
      "type": "function"
    },
    {
      "inputs": [],
      "name": "getWinPool",
      "outputs": [],
      "stateMutability": "nonpayable",
      "type": "function"
    },
    {
      "inputs": [
        {
          "internalType": "string",
          "name": "_result",
          "type": "string"
        }
      ],
      "name": "getWinners",
      "outputs": [],
      "stateMutability": "nonpayable",
      "type": "function"
    },
    {
      "inputs": [],
      "name": "lottery_state",
      "outputs": [
        {
          "internalType": "enum Lottery.LOTTERY_STATE",
          "name": "",
          "type": "uint8"
        }
      ],
      "stateMutability": "view",
      "type": "function"
    },
    {
      "inputs": [],
      "name": "owner",
      "outputs": [
        {
          "internalType": "address",
          "name": "",
          "type": "address"
        }
      ],
      "stateMutability": "view",
      "type": "function"
    },
    {
      "inputs": [
        {
          "internalType": "uint256",
          "name": "",
          "type": "uint256"
        }
      ],
      "name": "playerList",
      "outputs": [
        {
          "internalType": "address payable",
          "name": "",
          "type": "address"
        }
      ],
      "stateMutability": "view",
      "type": "function"
    },
    {
      "inputs": [],
      "name": "renounceOwnership",
      "outputs": [],
      "stateMutability": "nonpayable",
      "type": "function"
    },
    {
      "inputs": [
        {
          "internalType": "address",
          "name": "",
          "type": "address"
        },
        {
          "internalType": "address",
          "name": "",
          "type": "address"
        }
      ],
      "name": "stakingBalance",
      "outputs": [
        {
          "internalType": "uint256",
          "name": "",
          "type": "uint256"
        }
      ],
      "stateMutability": "view",
      "type": "function"
    },
    {
      "inputs": [],
      "name": "startLottery",
      "outputs": [],
      "stateMutability": "nonpayable",
      "type": "function"
    },
    {
      "inputs": [],
      "name": "totalValueLocked",
      "outputs": [
        {
          "internalType": "uint256",
          "name": "",
          "type": "uint256"
        }
      ],
      "stateMutability": "view",
      "type": "function"
    },
    {
      "inputs": [
        {
          "internalType": "address",
          "name": "newOwner",
          "type": "address"
        }
      ],
      "name": "transferOwnership",
      "outputs": [],
      "stateMutability": "nonpayable",
      "type": "function"
    },
    {
      "inputs": [
        {
          "internalType": "address",
          "name": "",
          "type": "address"
        }
      ],
      "name": "uniqueTokensStaked",
      "outputs": [
        {
          "internalType": "uint256",
          "name": "",
          "type": "uint256"
        }
      ],
      "stateMutability": "view",
      "type": "function"
    },
    {
      "inputs": [
        {
          "internalType": "address",
          "name": "_token",
          "type": "address"
        }
      ],
      "name": "updateStakeBeforeStart",
      "outputs": [],
      "stateMutability": "nonpayable",
      "type": "function"
    },
    {
      "inputs": [],
      "name": "winPool",
      "outputs": [
        {
          "internalType": "uint256",
          "name": "",
          "type": "uint256"
        }
      ],
      "stateMutability": "view",
      "type": "function"
    },
    {
      "inputs": [
        {
          "internalType": "uint256",
          "name": "",
          "type": "uint256"
        }
      ],
      "name": "winnerList",
      "outputs": [
        {
          "internalType": "address payable",
          "name": "",
          "type": "address"
        }
      ],
      "stateMutability": "view",
      "type": "function"
    }
  ],
  "bytecode": "0x60806040523480156200001157600080fd5b5060405162002fcf38038062002fcf833981810160405281019062000037919062000182565b620000576200004b6200009f60201b60201c565b620000a760201b60201c565b80600160006101000a81548173ffffffffffffffffffffffffffffffffffffffff021916908373ffffffffffffffffffffffffffffffffffffffff16021790555050620001fc565b600033905090565b60008060009054906101000a900473ffffffffffffffffffffffffffffffffffffffff169050816000806101000a81548173ffffffffffffffffffffffffffffffffffffffff021916908373ffffffffffffffffffffffffffffffffffffffff1602179055508173ffffffffffffffffffffffffffffffffffffffff168173ffffffffffffffffffffffffffffffffffffffff167f8be0079c531659141344cd1fd0a4f28419497f9722a3daafe3b4186f6b6457e060405160405180910390a35050565b6000815190506200017c81620001e2565b92915050565b6000602082840312156200019557600080fd5b6000620001a5848285016200016b565b91505092915050565b6000620001bb82620001c2565b9050919050565b600073ffffffffffffffffffffffffffffffffffffffff82169050919050565b620001ed81620001ae565b8114620001f957600080fd5b50565b612dc3806200020c6000396000f3fe6080604052600436106101405760003560e01c806373be230f116100b657806395a4c5251161006f57806395a4c52514610409578063ae6d907314610432578063b83e02341461046f578063ec18154e146104ac578063ef5cfb8c146104d7578063f2fde38b1461050057610140565b806373be230f146102f55780637fe23f6214610320578063814479991461034b5780638731c630146103765780638da5cb5b146103b35780638dedd3cc146103de57610140565b806336b56ca21161010857806336b56ca21461021a57806354b7c678146102315780635578027e1461024d57806364c96eef1461028a5780636fd09816146102c7578063715018a6146102de57610140565b80631593a8c714610145578063160344e21461015c57806327e235e31461017357806329161a00146101b45780632c65681a146101f1575b600080fd5b34801561015157600080fd5b5061015a610529565b005b34801561016857600080fd5b506101716105f8565b005b34801561017f57600080fd5b5061019a600480360381019061019591906120d7565b610789565b6040516101ab9594939291906126e9565b60405180910390f35b3480156101c057600080fd5b506101db60048036038101906101d69190612100565b610861565b6040516101e891906126ce565b60405180910390f35b3480156101fd57600080fd5b50610218600480360381019061021391906120d7565b610886565b005b34801561022657600080fd5b5061022f610a63565b005b61024b600480360381019061024691906121a6565b610c8d565b005b34801561025957600080fd5b50610274600480360381019061026f919061220d565b611236565b60405161028191906124fd565b60405180910390f35b34801561029657600080fd5b506102b160048036038101906102ac91906120d7565b611275565b6040516102be91906126ce565b60405180910390f35b3480156102d357600080fd5b506102dc6112ca565b005b3480156102ea57600080fd5b506102f3611399565b005b34801561030157600080fd5b5061030a611421565b6040516103179190612578565b60405180910390f35b34801561032c57600080fd5b50610335611447565b60405161034291906126ce565b60405180910390f35b34801561035757600080fd5b5061036061144d565b60405161036d9190612593565b60405180910390f35b34801561038257600080fd5b5061039d6004803603810190610398919061220d565b611460565b6040516103aa91906126ce565b60405180910390f35b3480156103bf57600080fd5b506103c86114cb565b6040516103d591906124e2565b60405180910390f35b3480156103ea57600080fd5b506103f36114f4565b60405161040091906126ce565b60405180910390f35b34801561041557600080fd5b50610430600480360381019061042b9190612165565b61160b565b005b34801561043e57600080fd5b506104596004803603810190610454919061220d565b611abb565b60405161046691906124fd565b60405180910390f35b34801561047b57600080fd5b50610496600480360381019061049191906120d7565b611afa565b6040516104a391906126ce565b60405180910390f35b3480156104b857600080fd5b506104c1611b12565b6040516104ce91906126ce565b60405180910390f35b3480156104e357600080fd5b506104fe60048036038101906104f991906120d7565b611b18565b005b34801561050c57600080fd5b50610527600480360381019061052291906120d7565b611dc9565b005b610531611ec1565b73ffffffffffffffffffffffffffffffffffffffff1661054f6114cb565b73ffffffffffffffffffffffffffffffffffffffff16146105a5576040517f08c379a000000000000000000000000000000000000000000000000000000000815260040161059c9061264e565b60405180910390fd5b6002600960006101000a81548160ff021916908360028111156105f1577f4e487b7100000000000000000000000000000000000000000000000000000000600052602160045260246000fd5b0217905550565b610600611ec1565b73ffffffffffffffffffffffffffffffffffffffff1661061e6114cb565b73ffffffffffffffffffffffffffffffffffffffff1614610674576040517f08c379a000000000000000000000000000000000000000000000000000000000815260040161066b9061264e565b60405180910390fd5b600160028111156106ae577f4e487b7100000000000000000000000000000000000000000000000000000000600052602160045260246000fd5b600960009054906101000a900460ff1660028111156106f6577f4e487b7100000000000000000000000000000000000000000000000000000000600052602160045260246000fd5b14610736576040517f08c379a000000000000000000000000000000000000000000000000000000000815260040161072d906126ae565b60405180910390fd5b6000600960006101000a81548160ff02191690836002811115610782577f4e487b7100000000000000000000000000000000000000000000000000000000600052602160045260246000fd5b0217905550565b60046020528060005260406000206000915090508060000154908060010180546107b2906129cf565b80601f01602080910402602001604051908101604052809291908181526020018280546107de906129cf565b801561082b5780601f106108005761010080835404028352916020019161082b565b820191906000526020600020905b81548152906001019060200180831161080e57829003601f168201915b5050505050908060020160009054906101000a900460ff16908060020160019054906101000a900460ff16908060030154905085565b6002602052816000526040600020602052806000526040600020600091509150505481565b600060028111156108c0577f4e487b7100000000000000000000000000000000000000000000000000000000600052602160045260246000fd5b600960009054906101000a900460ff166002811115610908577f4e487b7100000000000000000000000000000000000000000000000000000000600052602160045260246000fd5b1461091257600080fd5b60003390506000600460008373ffffffffffffffffffffffffffffffffffffffff1673ffffffffffffffffffffffffffffffffffffffff1681526020019081526020016000206000015490508273ffffffffffffffffffffffffffffffffffffffff1663a9059cbb83836040518363ffffffff1660e01b815260040161099992919061254f565b602060405180830381600087803b1580156109b357600080fd5b505af11580156109c7573d6000803e3d6000fd5b505050506040513d601f19601f820116820180604052508101906109eb919061213c565b5080600460008473ffffffffffffffffffffffffffffffffffffffff1673ffffffffffffffffffffffffffffffffffffffff1681526020019081526020016000206000016000828254610a3e91906128b6565b925050819055508060086000828254610a5791906128b6565b92505081905550505050565b610a6b611ec1565b73ffffffffffffffffffffffffffffffffffffffff16610a896114cb565b73ffffffffffffffffffffffffffffffffffffffff1614610adf576040517f08c379a0000000000000000000000000000000000000000000000000000000008152600401610ad69061264e565b60405180910390fd5b600280811115610b18577f4e487b7100000000000000000000000000000000000000000000000000000000600052602160045260246000fd5b600960009054906101000a900460ff166002811115610b60577f4e487b7100000000000000000000000000000000000000000000000000000000600052602160045260246000fd5b14610ba0576040517f08c379a0000000000000000000000000000000000000000000000000000000008152600401610b979061268e565b60405180910390fd5b60005b600680549050811015610c82576004600060068381548110610bee577f4e487b7100000000000000000000000000000000000000000000000000000000600052603260045260246000fd5b9060005260206000200160009054906101000a900473ffffffffffffffffffffffffffffffffffffffff1673ffffffffffffffffffffffffffffffffffffffff1673ffffffffffffffffffffffffffffffffffffffff1681526020019081526020016000206000015460076000828254610c6891906127d5565b925050819055508080610c7a90612a32565b915050610ba3565b50610c8b6112ca565b565b60006002811115610cc7577f4e487b7100000000000000000000000000000000000000000000000000000000600052602160045260246000fd5b600960009054906101000a900460ff166002811115610d0f577f4e487b7100000000000000000000000000000000000000000000000000000000600052602160045260246000fd5b14610d1957600080fd5b60008111610d5c576040517f08c379a0000000000000000000000000000000000000000000000000000000008152600401610d539061260e565b60405180910390fd5b600183511015610da1576040517f08c379a0000000000000000000000000000000000000000000000000000000008152600401610d989061262e565b60405180910390fd5b600033905060008290506000610db682611460565b905060008183610dc691906128b6565b90508573ffffffffffffffffffffffffffffffffffffffff166323b872dd85735a8a9cffb9d17879d0e2c0e8ce19df43b15956f1856040518463ffffffff1660e01b8152600401610e1993929190612518565b602060405180830381600087803b158015610e3357600080fd5b505af1158015610e47573d6000803e3d6000fd5b505050506040513d601f19601f82011682018060405250810190610e6b919061213c565b508573ffffffffffffffffffffffffffffffffffffffff166323b872dd8530846040518463ffffffff1660e01b8152600401610ea993929190612518565b602060405180830381600087803b158015610ec357600080fd5b505af1158015610ed7573d6000803e3d6000fd5b505050506040513d601f19601f82011682018060405250810190610efb919061213c565b506005849080600181540180825580915050600190039060005260206000200160009091909190916101000a81548173ffffffffffffffffffffffffffffffffffffffff021916908373ffffffffffffffffffffffffffffffffffffffff16021790555080600260008873ffffffffffffffffffffffffffffffffffffffff1673ffffffffffffffffffffffffffffffffffffffff16815260200190815260200160002060008673ffffffffffffffffffffffffffffffffffffffff1673ffffffffffffffffffffffffffffffffffffffff16815260200190815260200160002054610fe791906127d5565b600260008873ffffffffffffffffffffffffffffffffffffffff1673ffffffffffffffffffffffffffffffffffffffff16815260200190815260200160002060008673ffffffffffffffffffffffffffffffffffffffff1673ffffffffffffffffffffffffffffffffffffffff1681526020019081526020016000208190555080600460008673ffffffffffffffffffffffffffffffffffffffff1673ffffffffffffffffffffffffffffffffffffffff16815260200190815260200160002060000160008282546110b991906127d5565b9250508190555086600460008673ffffffffffffffffffffffffffffffffffffffff1673ffffffffffffffffffffffffffffffffffffffff1681526020019081526020016000206001019080519060200190611116929190611f8d565b5043600460008673ffffffffffffffffffffffffffffffffffffffff1673ffffffffffffffffffffffffffffffffffffffff168152602001908152602001600020600301819055506000600460008673ffffffffffffffffffffffffffffffffffffffff1673ffffffffffffffffffffffffffffffffffffffff16815260200190815260200160002060020160006101000a81548160ff0219169083151502179055506000600460008673ffffffffffffffffffffffffffffffffffffffff1673ffffffffffffffffffffffffffffffffffffffff16815260200190815260200160002060020160016101000a81548160ff021916908315150217905550806008600082825461122691906127d5565b9250508190555050505050505050565b6006818154811061124657600080fd5b906000526020600020016000915054906101000a900473ffffffffffffffffffffffffffffffffffffffff1681565b60008060009050600460008473ffffffffffffffffffffffffffffffffffffffff1673ffffffffffffffffffffffffffffffffffffffff16815260200190815260200160002060000154905080915050919050565b6112d2611ec1565b73ffffffffffffffffffffffffffffffffffffffff166112f06114cb565b73ffffffffffffffffffffffffffffffffffffffff1614611346576040517f08c379a000000000000000000000000000000000000000000000000000000000815260040161133d9061264e565b60405180910390fd5b6001600960006101000a81548160ff02191690836002811115611392577f4e487b7100000000000000000000000000000000000000000000000000000000600052602160045260246000fd5b0217905550565b6113a1611ec1565b73ffffffffffffffffffffffffffffffffffffffff166113bf6114cb565b73ffffffffffffffffffffffffffffffffffffffff1614611415576040517f08c379a000000000000000000000000000000000000000000000000000000000815260040161140c9061264e565b60405180910390fd5b61141f6000611ec9565b565b600160009054906101000a900473ffffffffffffffffffffffffffffffffffffffff1681565b60075481565b600960009054906101000a900460ff1681565b60008060329050808310156114aa576040517f08c379a00000000000000000000000000000000000000000000000000000000081526004016114a19061266e565b60405180910390fd5b60646005846114b9919061285c565b6114c3919061282b565b915050919050565b60008060009054906101000a900473ffffffffffffffffffffffffffffffffffffffff16905090565b60008033905060016006805490501415611512576008549150611607565b60016006805490501115611601576000600754612710600460008573ffffffffffffffffffffffffffffffffffffffff1673ffffffffffffffffffffffffffffffffffffffff16815260200190815260200160002060000154611575919061285c565b61157f919061282b565b90506127108160075460085461159591906128b6565b61159f919061285c565b6115a9919061282b565b9250600460008373ffffffffffffffffffffffffffffffffffffffff1673ffffffffffffffffffffffffffffffffffffffff16815260200190815260200160002060000154836115f991906127d5565b925050611606565b600091505b5b5090565b611613611ec1565b73ffffffffffffffffffffffffffffffffffffffff166116316114cb565b73ffffffffffffffffffffffffffffffffffffffff1614611687576040517f08c379a000000000000000000000000000000000000000000000000000000000815260040161167e9061264e565b60405180910390fd5b6002808111156116c0577f4e487b7100000000000000000000000000000000000000000000000000000000600052602160045260246000fd5b600960009054906101000a900460ff166002811115611708577f4e487b7100000000000000000000000000000000000000000000000000000000600052602160045260246000fd5b14611748576040517f08c379a000000000000000000000000000000000000000000000000000000000815260040161173f9061268e565b60405180910390fd5b60005b600580549050811015611aaf578160405160200161176991906124b4565b6040516020818303038152906040528051906020012060046000600584815481106117bd577f4e487b7100000000000000000000000000000000000000000000000000000000600052603260045260246000fd5b9060005260206000200160009054906101000a900473ffffffffffffffffffffffffffffffffffffffff1673ffffffffffffffffffffffffffffffffffffffff1673ffffffffffffffffffffffffffffffffffffffff16815260200190815260200160002060010160405160200161183591906124cb565b6040516020818303038152906040528051906020012014156119dc5760016004600060058481548110611891577f4e487b7100000000000000000000000000000000000000000000000000000000600052603260045260246000fd5b9060005260206000200160009054906101000a900473ffffffffffffffffffffffffffffffffffffffff1673ffffffffffffffffffffffffffffffffffffffff1673ffffffffffffffffffffffffffffffffffffffff16815260200190815260200160002060020160006101000a81548160ff02191690831515021790555060066005828154811061194c577f4e487b7100000000000000000000000000000000000000000000000000000000600052603260045260246000fd5b9060005260206000200160009054906101000a900473ffffffffffffffffffffffffffffffffffffffff169080600181540180825580915050600190039060005260206000200160009091909190916101000a81548173ffffffffffffffffffffffffffffffffffffffff021916908373ffffffffffffffffffffffffffffffffffffffff160217905550611a9c565b60006004600060058481548110611a1c577f4e487b7100000000000000000000000000000000000000000000000000000000600052603260045260246000fd5b9060005260206000200160009054906101000a900473ffffffffffffffffffffffffffffffffffffffff1673ffffffffffffffffffffffffffffffffffffffff1673ffffffffffffffffffffffffffffffffffffffff16815260200190815260200160002060020160006101000a81548160ff0219169083151502179055505b8080611aa790612a32565b91505061174b565b50611ab8610a63565b50565b60058181548110611acb57600080fd5b906000526020600020016000915054906101000a900473ffffffffffffffffffffffffffffffffffffffff1681565b60036020528060005260406000206000915090505481565b60085481565b600033905060016002811115611b57577f4e487b7100000000000000000000000000000000000000000000000000000000600052602160045260246000fd5b600960009054906101000a900460ff166002811115611b9f577f4e487b7100000000000000000000000000000000000000000000000000000000600052602160045260246000fd5b14611ba957600080fd5b60011515600460008373ffffffffffffffffffffffffffffffffffffffff1673ffffffffffffffffffffffffffffffffffffffff16815260200190815260200160002060020160009054906101000a900460ff16151514611c3f576040517f08c379a0000000000000000000000000000000000000000000000000000000008152600401611c36906125ae565b60405180910390fd5b60001515600460008373ffffffffffffffffffffffffffffffffffffffff1673ffffffffffffffffffffffffffffffffffffffff16815260200190815260200160002060020160019054906101000a900460ff16151514611cd5576040517f08c379a0000000000000000000000000000000000000000000000000000000008152600401611ccc906125ee565b60405180910390fd5b8173ffffffffffffffffffffffffffffffffffffffff1663a9059cbb82611cfa6114f4565b6040518363ffffffff1660e01b8152600401611d1792919061254f565b602060405180830381600087803b158015611d3157600080fd5b505af1158015611d45573d6000803e3d6000fd5b505050506040513d601f19601f82011682018060405250810190611d69919061213c565b506001600460008373ffffffffffffffffffffffffffffffffffffffff1673ffffffffffffffffffffffffffffffffffffffff16815260200190815260200160002060020160016101000a81548160ff0219169083151502179055505050565b611dd1611ec1565b73ffffffffffffffffffffffffffffffffffffffff16611def6114cb565b73ffffffffffffffffffffffffffffffffffffffff1614611e45576040517f08c379a0000000000000000000000000000000000000000000000000000000008152600401611e3c9061264e565b60405180910390fd5b600073ffffffffffffffffffffffffffffffffffffffff168173ffffffffffffffffffffffffffffffffffffffff161415611eb5576040517f08c379a0000000000000000000000000000000000000000000000000000000008152600401611eac906125ce565b60405180910390fd5b611ebe81611ec9565b50565b600033905090565b60008060009054906101000a900473ffffffffffffffffffffffffffffffffffffffff169050816000806101000a81548173ffffffffffffffffffffffffffffffffffffffff021916908373ffffffffffffffffffffffffffffffffffffffff1602179055508173ffffffffffffffffffffffffffffffffffffffff168173ffffffffffffffffffffffffffffffffffffffff167f8be0079c531659141344cd1fd0a4f28419497f9722a3daafe3b4186f6b6457e060405160405180910390a35050565b828054611f99906129cf565b90600052602060002090601f016020900481019282611fbb5760008555612002565b82601f10611fd457805160ff1916838001178555612002565b82800160010185558215612002579182015b82811115612001578251825591602001919060010190611fe6565b5b50905061200f9190612013565b5090565b5b8082111561202c576000816000905550600101612014565b5090565b600061204361203e84612768565b612743565b90508281526020810184848401111561205b57600080fd5b61206684828561298d565b509392505050565b60008135905061207d81612d48565b92915050565b60008151905061209281612d5f565b92915050565b600082601f8301126120a957600080fd5b81356120b9848260208601612030565b91505092915050565b6000813590506120d181612d76565b92915050565b6000602082840312156120e957600080fd5b60006120f78482850161206e565b91505092915050565b6000806040838503121561211357600080fd5b60006121218582860161206e565b92505060206121328582860161206e565b9150509250929050565b60006020828403121561214e57600080fd5b600061215c84828501612083565b91505092915050565b60006020828403121561217757600080fd5b600082013567ffffffffffffffff81111561219157600080fd5b61219d84828501612098565b91505092915050565b6000806000606084860312156121bb57600080fd5b600084013567ffffffffffffffff8111156121d557600080fd5b6121e186828701612098565b93505060206121f28682870161206e565b9250506040612203868287016120c2565b9150509250925092565b60006020828403121561221f57600080fd5b600061222d848285016120c2565b91505092915050565b61223f816128fc565b82525050565b61224e816128ea565b82525050565b61225d8161290e565b82525050565b61226c81612957565b82525050565b61227b8161297b565b82525050565b600061228c826127ae565b61229681856127b9565b93506122a681856020860161299c565b6122af81612b66565b840191505092915050565b60006122c5826127ae565b6122cf81856127ca565b93506122df81856020860161299c565b80840191505092915050565b600081546122f8816129cf565b61230281866127ca565b9450600182166000811461231d576001811461232e57612361565b60ff19831686528186019350612361565b61233785612799565b60005b838110156123595781548189015260018201915060208101905061233a565b838801955050505b50505092915050565b60006123776014836127b9565b915061238282612b77565b602082019050919050565b600061239a6026836127b9565b91506123a582612ba0565b604082019050919050565b60006123bd6024836127b9565b91506123c882612bef565b604082019050919050565b60006123e0601a836127b9565b91506123eb82612c3e565b602082019050919050565b6000612403601b836127b9565b915061240e82612c67565b602082019050919050565b60006124266020836127b9565b915061243182612c90565b602082019050919050565b60006124496017836127b9565b915061245482612cb9565b602082019050919050565b600061246c601d836127b9565b915061247782612ce2565b602082019050919050565b600061248f601e836127b9565b915061249a82612d0b565b602082019050919050565b6124ae8161294d565b82525050565b60006124c082846122ba565b915081905092915050565b60006124d782846122eb565b915081905092915050565b60006020820190506124f76000830184612245565b92915050565b60006020820190506125126000830184612236565b92915050565b600060608201905061252d6000830186612245565b61253a6020830185612245565b61254760408301846124a5565b949350505050565b60006040820190506125646000830185612245565b61257160208301846124a5565b9392505050565b600060208201905061258d6000830184612263565b92915050565b60006020820190506125a86000830184612272565b92915050565b600060208201905081810360008301526125c78161236a565b9050919050565b600060208201905081810360008301526125e78161238d565b9050919050565b60006020820190508181036000830152612607816123b0565b9050919050565b60006020820190508181036000830152612627816123d3565b9050919050565b60006020820190508181036000830152612647816123f6565b9050919050565b6000602082019050818103600083015261266781612419565b9050919050565b600060208201905081810360008301526126878161243c565b9050919050565b600060208201905081810360008301526126a78161245f565b9050919050565b600060208201905081810360008301526126c781612482565b9050919050565b60006020820190506126e360008301846124a5565b92915050565b600060a0820190506126fe60008301886124a5565b81810360208301526127108187612281565b905061271f6040830186612254565b61272c6060830185612254565b61273960808301846124a5565b9695505050505050565b600061274d61275e565b90506127598282612a01565b919050565b6000604051905090565b600067ffffffffffffffff82111561278357612782612b37565b5b61278c82612b66565b9050602081019050919050565b60008190508160005260206000209050919050565b600081519050919050565b600082825260208201905092915050565b600081905092915050565b60006127e08261294d565b91506127eb8361294d565b9250827fffffffffffffffffffffffffffffffffffffffffffffffffffffffffffffffff038211156128205761281f612a7b565b5b828201905092915050565b60006128368261294d565b91506128418361294d565b92508261285157612850612aaa565b5b828204905092915050565b60006128678261294d565b91506128728361294d565b9250817fffffffffffffffffffffffffffffffffffffffffffffffffffffffffffffffff04831182151516156128ab576128aa612a7b565b5b828202905092915050565b60006128c18261294d565b91506128cc8361294d565b9250828210156128df576128de612a7b565b5b828203905092915050565b60006128f58261292d565b9050919050565b60006129078261292d565b9050919050565b60008115159050919050565b600081905061292882612d34565b919050565b600073ffffffffffffffffffffffffffffffffffffffff82169050919050565b6000819050919050565b600061296282612969565b9050919050565b60006129748261292d565b9050919050565b60006129868261291a565b9050919050565b82818337600083830152505050565b60005b838110156129ba57808201518184015260208101905061299f565b838111156129c9576000848401525b50505050565b600060028204905060018216806129e757607f821691505b602082108114156129fb576129fa612b08565b5b50919050565b612a0a82612b66565b810181811067ffffffffffffffff82111715612a2957612a28612b37565b5b80604052505050565b6000612a3d8261294d565b91507fffffffffffffffffffffffffffffffffffffffffffffffffffffffffffffffff821415612a7057612a6f612a7b565b5b600182019050919050565b7f4e487b7100000000000000000000000000000000000000000000000000000000600052601160045260246000fd5b7f4e487b7100000000000000000000000000000000000000000000000000000000600052601260045260246000fd5b7f4e487b7100000000000000000000000000000000000000000000000000000000600052602160045260246000fd5b7f4e487b7100000000000000000000000000000000000000000000000000000000600052602260045260246000fd5b7f4e487b7100000000000000000000000000000000000000000000000000000000600052604160045260246000fd5b6000601f19601f8301169050919050565b7f596f7520617265206e6f7420612077696e6e6572000000000000000000000000600082015250565b7f4f776e61626c653a206e6577206f776e657220697320746865207a65726f206160008201527f6464726573730000000000000000000000000000000000000000000000000000602082015250565b7f596f75206861766520636c61696d656420746865207265776172647320616c7260008201527f6561647900000000000000000000000000000000000000000000000000000000602082015250565b7f416d6f756e74206d757374206265206d6f7265207468616e2030000000000000600082015250565b7f4e6f2077696e6e657220686173206265656e2073656c65637465640000000000600082015250565b7f4f776e61626c653a2063616c6c6572206973206e6f7420746865206f776e6572600082015250565b7f4d696e696d756d20626574206e6f742072656163686564000000000000000000600082015250565b7f4c6f7474657279206e6565647320746f2066696e697368206669727374000000600082015250565b7f43616e27742073746172742061206e6577206c6f747465727920796574210000600082015250565b60038110612d4557612d44612ad9565b5b50565b612d51816128ea565b8114612d5c57600080fd5b50565b612d688161290e565b8114612d7357600080fd5b50565b612d7f8161294d565b8114612d8a57600080fd5b5056fea264697066735822122069d3118d71da20d4fecc116358efc42e1dbc9e49e6acd621d63893e3745dc65b64736f6c63430008040033",
  "linkReferences": {},
  "deployedLinkReferences": {}
}